{
  "_format": "hh-sol-artifact-1",
  "contractName": "Nft",
  "sourceName": "contracts/Nft.sol",
  "abi": [
    {
      "inputs": [],
      "stateMutability": "nonpayable",
      "type": "constructor"
    },
    {
      "anonymous": false,
      "inputs": [
        {
          "indexed": true,
          "internalType": "address",
          "name": "owner",
          "type": "address"
        },
        {
          "indexed": true,
          "internalType": "address",
          "name": "approved",
          "type": "address"
        },
        {
          "indexed": true,
          "internalType": "uint256",
          "name": "tokenId",
          "type": "uint256"
        }
      ],
      "name": "Approval",
      "type": "event"
    },
    {
      "anonymous": false,
      "inputs": [
        {
          "indexed": true,
          "internalType": "address",
          "name": "owner",
          "type": "address"
        },
        {
          "indexed": true,
          "internalType": "address",
          "name": "operator",
          "type": "address"
        },
        {
          "indexed": false,
          "internalType": "bool",
          "name": "approved",
          "type": "bool"
        }
      ],
      "name": "ApprovalForAll",
      "type": "event"
    },
    {
      "anonymous": false,
      "inputs": [
        {
          "indexed": false,
          "internalType": "string",
          "name": "svg",
          "type": "string"
        },
        {
          "components": [
            {
              "internalType": "uint256",
              "name": "_value",
              "type": "uint256"
            }
          ],
          "indexed": false,
          "internalType": "struct Counters.Counter",
          "name": "id",
          "type": "tuple"
        }
      ],
      "name": "NewMint",
      "type": "event"
    },
    {
      "anonymous": false,
      "inputs": [
        {
          "indexed": true,
          "internalType": "address",
          "name": "from",
          "type": "address"
        },
        {
          "indexed": true,
          "internalType": "address",
          "name": "to",
          "type": "address"
        },
        {
          "indexed": true,
          "internalType": "uint256",
          "name": "tokenId",
          "type": "uint256"
        }
      ],
      "name": "Transfer",
      "type": "event"
    },
    {
      "inputs": [
        {
          "internalType": "address",
          "name": "to",
          "type": "address"
        },
        {
          "internalType": "uint256",
          "name": "tokenId",
          "type": "uint256"
        }
      ],
      "name": "approve",
      "outputs": [],
      "stateMutability": "nonpayable",
      "type": "function"
    },
    {
      "inputs": [
        {
          "internalType": "address",
          "name": "owner",
          "type": "address"
        }
      ],
      "name": "balanceOf",
      "outputs": [
        {
          "internalType": "uint256",
          "name": "",
          "type": "uint256"
        }
      ],
      "stateMutability": "view",
      "type": "function"
    },
    {
      "inputs": [
        {
          "internalType": "uint256",
          "name": "tokenId",
          "type": "uint256"
        }
      ],
      "name": "getApproved",
      "outputs": [
        {
          "internalType": "address",
          "name": "",
          "type": "address"
        }
      ],
      "stateMutability": "view",
      "type": "function"
    },
    {
      "inputs": [
        {
          "internalType": "address",
          "name": "owner",
          "type": "address"
        },
        {
          "internalType": "address",
          "name": "operator",
          "type": "address"
        }
      ],
      "name": "isApprovedForAll",
      "outputs": [
        {
          "internalType": "bool",
          "name": "",
          "type": "bool"
        }
      ],
      "stateMutability": "view",
      "type": "function"
    },
    {
      "inputs": [],
      "name": "mint",
      "outputs": [],
      "stateMutability": "nonpayable",
      "type": "function"
    },
    {
      "inputs": [],
      "name": "name",
      "outputs": [
        {
          "internalType": "string",
          "name": "",
          "type": "string"
        }
      ],
      "stateMutability": "view",
      "type": "function"
    },
    {
      "inputs": [
        {
          "internalType": "uint256",
          "name": "tokenId",
          "type": "uint256"
        }
      ],
      "name": "ownerOf",
      "outputs": [
        {
          "internalType": "address",
          "name": "",
          "type": "address"
        }
      ],
      "stateMutability": "view",
      "type": "function"
    },
    {
      "inputs": [
        {
          "internalType": "uint256",
          "name": "tokenId",
          "type": "uint256"
        }
      ],
      "name": "pickRandomColor",
      "outputs": [
        {
          "internalType": "string",
          "name": "",
          "type": "string"
        }
      ],
      "stateMutability": "view",
      "type": "function"
    },
    {
      "inputs": [
        {
          "internalType": "uint256",
          "name": "tokenId",
          "type": "uint256"
        }
      ],
      "name": "pickSecondColor",
      "outputs": [
        {
          "internalType": "string",
          "name": "",
          "type": "string"
        }
      ],
      "stateMutability": "view",
      "type": "function"
    },
    {
      "inputs": [
        {
          "internalType": "address",
          "name": "from",
          "type": "address"
        },
        {
          "internalType": "address",
          "name": "to",
          "type": "address"
        },
        {
          "internalType": "uint256",
          "name": "tokenId",
          "type": "uint256"
        }
      ],
      "name": "safeTransferFrom",
      "outputs": [],
      "stateMutability": "nonpayable",
      "type": "function"
    },
    {
      "inputs": [
        {
          "internalType": "address",
          "name": "from",
          "type": "address"
        },
        {
          "internalType": "address",
          "name": "to",
          "type": "address"
        },
        {
          "internalType": "uint256",
          "name": "tokenId",
          "type": "uint256"
        },
        {
          "internalType": "bytes",
          "name": "_data",
          "type": "bytes"
        }
      ],
      "name": "safeTransferFrom",
      "outputs": [],
      "stateMutability": "nonpayable",
      "type": "function"
    },
    {
      "inputs": [
        {
          "internalType": "address",
          "name": "operator",
          "type": "address"
        },
        {
          "internalType": "bool",
          "name": "approved",
          "type": "bool"
        }
      ],
      "name": "setApprovalForAll",
      "outputs": [],
      "stateMutability": "nonpayable",
      "type": "function"
    },
    {
      "inputs": [
        {
          "internalType": "bytes4",
          "name": "interfaceId",
          "type": "bytes4"
        }
      ],
      "name": "supportsInterface",
      "outputs": [
        {
          "internalType": "bool",
          "name": "",
          "type": "bool"
        }
      ],
      "stateMutability": "view",
      "type": "function"
    },
    {
      "inputs": [],
      "name": "symbol",
      "outputs": [
        {
          "internalType": "string",
          "name": "",
          "type": "string"
        }
      ],
      "stateMutability": "view",
      "type": "function"
    },
    {
      "inputs": [
        {
          "internalType": "uint256",
          "name": "tokenId",
          "type": "uint256"
        }
      ],
      "name": "tokenURI",
      "outputs": [
        {
          "internalType": "string",
          "name": "",
          "type": "string"
        }
      ],
      "stateMutability": "view",
      "type": "function"
    },
    {
      "inputs": [
        {
          "internalType": "address",
          "name": "from",
          "type": "address"
        },
        {
          "internalType": "address",
          "name": "to",
          "type": "address"
        },
        {
          "internalType": "uint256",
          "name": "tokenId",
          "type": "uint256"
        }
      ],
      "name": "transferFrom",
      "outputs": [],
      "stateMutability": "nonpayable",
      "type": "function"
    }
  ],
  "bytecode": "0x6080604052604051806103400160405280610307815260200162005ce861030791396008908051906020019062000038929190620004b3565b506040518061030001604052806102c2815260200162005a266102c29139600990805190602001906200006d929190620004b3565b50604051806104a001604052806104678152602001620055bf6104679139600a9080519060200190620000a2929190620004b3565b50604051806115e001604052806115a68152602001620040196115a69139600b9080519060200190620000d7929190620004b3565b5060405180608001604052806040518060400160405280600781526020017f233961643134620000000000000000000000000000000000000000000000000081525081526020016040518060400160405280600781526020017f236561336663350000000000000000000000000000000000000000000000000081525081526020016040518060400160405280600781526020017f233334373061380000000000000000000000000000000000000000000000000081525081526020016040518060400160405280600781526020017f2366376666323300000000000000000000000000000000000000000000000000815250815250600c906004620001df92919062000544565b5060405180608001604052806040518060400160405280600781526020017f233930626334320000000000000000000000000000000000000000000000000081525081526020016040518060400160405280600781526020017f236634343265380000000000000000000000000000000000000000000000000081525081526020016040518060400160405280600781526020017f233832636566320000000000000000000000000000000000000000000000000081525081526020016040518060400160405280600781526020017f2366636537303000000000000000000000000000000000000000000000000000815250815250600d906004620002e792919062000544565b50348015620002f557600080fd5b506040518060400160405280600781526020017f5a6f6f6d626965000000000000000000000000000000000000000000000000008152506040518060400160405280600381526020017f5a4d42000000000000000000000000000000000000000000000000000000000081525081600090805190602001906200037a929190620004b3565b50806001908051906020019062000393929190620004b3565b505050620003e16040518060400160405280600981526020017f4465706c6f796564210000000000000000000000000000000000000000000000815250620003e760201b62000f7c1760201c565b62000765565b6200048781604051602401620003fe919062000679565b6040516020818303038152906040527f41304fac000000000000000000000000000000000000000000000000000000007bffffffffffffffffffffffffffffffffffffffffffffffffffffffff19166020820180517bffffffffffffffffffffffffffffffffffffffffffffffffffffffff83818316178352505050506200048a60201b60201c565b50565b60008151905060006a636f6e736f6c652e6c6f679050602083016000808483855afa5050505050565b828054620004c190620006ef565b90600052602060002090601f016020900481019282620004e5576000855562000531565b82601f106200050057805160ff191683800117855562000531565b8280016001018555821562000531579182015b828111156200053057825182559160200191906001019062000513565b5b509050620005409190620005ab565b5090565b82805482825590600052602060002090810192821562000598579160200282015b828111156200059757825182908051906020019062000586929190620004b3565b509160200191906001019062000565565b5b509050620005a79190620005ca565b5090565b5b80821115620005c6576000816000905550600101620005ac565b5090565b5b80821115620005ee5760008181620005e49190620005f2565b50600101620005cb565b5090565b5080546200060090620006ef565b6000825580601f1062000614575062000635565b601f016020900490600052602060002090810190620006349190620005ab565b5b50565b600062000645826200069d565b620006518185620006a8565b935062000663818560208601620006b9565b6200066e8162000754565b840191505092915050565b6000602082019050818103600083015262000695818462000638565b905092915050565b600081519050919050565b600082825260208201905092915050565b60005b83811015620006d9578082015181840152602081019050620006bc565b83811115620006e9576000848401525b50505050565b600060028204905060018216806200070857607f821691505b602082108114156200071f576200071e62000725565b5b50919050565b7f4e487b7100000000000000000000000000000000000000000000000000000000600052602260045260246000fd5b6000601f19601f8301169050919050565b6138a480620007756000396000f3fe608060405234801561001057600080fd5b50600436106101005760003560e01c8063514dc8c611610097578063a22cb46511610066578063a22cb465146102bf578063b88d4fde146102db578063c87b56dd146102f7578063e985e9c51461032757610100565b8063514dc8c6146102115780636352211e1461024157806370a082311461027157806395d89b41146102a157610100565b80631249c58b116100d35780631249c58b1461019f5780631796f8db146101a957806323b872dd146101d957806342842e0e146101f557610100565b806301ffc9a71461010557806306fdde0314610135578063081812fc14610153578063095ea7b314610183575b600080fd5b61011f600480360381019061011a9190612389565b610357565b60405161012c9190612a84565b60405180910390f35b61013d610439565b60405161014a9190612a9f565b60405180910390f35b61016d600480360381019061016891906123db565b6104cb565b60405161017a9190612a1d565b60405180910390f35b61019d6004803603810190610198919061234d565b610550565b005b6101a7610668565b005b6101c360048036038101906101be91906123db565b610866565b6040516101d09190612a9f565b60405180910390f35b6101f360048036038101906101ee9190612247565b610984565b005b61020f600480360381019061020a9190612247565b6109e4565b005b61022b600480360381019061022691906123db565b610a04565b6040516102389190612a9f565b60405180910390f35b61025b600480360381019061025691906123db565b610b22565b6040516102689190612a1d565b60405180910390f35b61028b600480360381019061028691906121e2565b610bd4565b6040516102989190612d2f565b60405180910390f35b6102a9610c8c565b6040516102b69190612a9f565b60405180910390f35b6102d960048036038101906102d49190612311565b610d1e565b005b6102f560048036038101906102f09190612296565b610d34565b005b610311600480360381019061030c91906123db565b610d96565b60405161031e9190612a9f565b60405180910390f35b610341600480360381019061033c919061220b565b610ee8565b60405161034e9190612a84565b60405180910390f35b60007f80ac58cd000000000000000000000000000000000000000000000000000000007bffffffffffffffffffffffffffffffffffffffffffffffffffffffff1916827bffffffffffffffffffffffffffffffffffffffffffffffffffffffff1916148061042257507f5b5e139f000000000000000000000000000000000000000000000000000000007bffffffffffffffffffffffffffffffffffffffffffffffffffffffff1916827bffffffffffffffffffffffffffffffffffffffffffffffffffffffff1916145b80610432575061043182611015565b5b9050919050565b60606000805461044890612fcd565b80601f016020809104026020016040519081016040528092919081815260200182805461047490612fcd565b80156104c15780601f10610496576101008083540402835291602001916104c1565b820191906000526020600020905b8154815290600101906020018083116104a457829003601f168201915b5050505050905090565b60006104d68261107f565b610515576040517f08c379a000000000000000000000000000000000000000000000000000000000815260040161050c90612caf565b60405180910390fd5b6004600083815260200190815260200160002060009054906101000a900473ffffffffffffffffffffffffffffffffffffffff169050919050565b600061055b82610b22565b90508073ffffffffffffffffffffffffffffffffffffffff168373ffffffffffffffffffffffffffffffffffffffff1614156105cc576040517f08c379a00000000000000000000000000000000000000000000000000000000081526004016105c390612cef565b60405180910390fd5b8073ffffffffffffffffffffffffffffffffffffffff166105eb6110eb565b73ffffffffffffffffffffffffffffffffffffffff16148061061a5750610619816106146110eb565b610ee8565b5b610659576040517f08c379a000000000000000000000000000000000000000000000000000000000815260040161065090612bef565b60405180910390fd5b61066383836110f3565b505050565b600061067460076111ac565b9050600061068182610a04565b9050600061068e83610866565b90506000600882600985600a86600b6040516020016106b397969594939291906128eb565b6040516020818303038152906040529050600061071984846040516020016106dc9291906128c7565b6040516020818303038152906040526106f4846111ba565b604051602001610705929190612994565b6040516020818303038152906040526111ba565b905060008160405160200161072e91906129fb565b604051602081830303815290604052905061077d6040518060400160405280601581526020017f0a2d2d2d2d2d2d2d2d2d2d2d2d2d2d2d2d2d2d2d2d0000000000000000000000815250610f7c565b6107a5816040516020016107919190612950565b604051602081830303815290604052610f7c565b6107e36040518060400160405280601581526020017f2d2d2d2d2d2d2d2d2d2d2d2d2d2d2d2d2d2d2d2d0a0000000000000000000000815250610f7c565b6107ed3387611359565b6107f78682611377565b61080160076113eb565b61082460405180606001604052806025815260200161380a602591398733611401565b7f31306c30bab1c5d3e46e232eb852f9a4c77e051796f7f038b972ab6bcca30969836007604051610856929190612ac1565b60405180910390a1505050505050565b6060600061089a610876846114a0565b6040516020016108869190612972565b60405160208183030381529060405261164d565b9050600d80549050816108ad9190613093565b9050600d81815481106108e9577f4e487b7100000000000000000000000000000000000000000000000000000000600052603260045260246000fd5b9060005260206000200180546108fe90612fcd565b80601f016020809104026020016040519081016040528092919081815260200182805461092a90612fcd565b80156109775780601f1061094c57610100808354040283529160200191610977565b820191906000526020600020905b81548152906001019060200180831161095a57829003601f168201915b5050505050915050919050565b61099561098f6110eb565b82611680565b6109d4576040517f08c379a00000000000000000000000000000000000000000000000000000000081526004016109cb90612d0f565b60405180910390fd5b6109df83838361175e565b505050565b6109ff83838360405180602001604052806000815250610d34565b505050565b60606000610a38610a14846114a0565b604051602001610a2491906129d9565b60405160208183030381529060405261164d565b9050600c8054905081610a4b9190613093565b9050600c8181548110610a87577f4e487b7100000000000000000000000000000000000000000000000000000000600052603260045260246000fd5b906000526020600020018054610a9c90612fcd565b80601f0160208091040260200160405190810160405280929190818152602001828054610ac890612fcd565b8015610b155780601f10610aea57610100808354040283529160200191610b15565b820191906000526020600020905b815481529060010190602001808311610af857829003601f168201915b5050505050915050919050565b6000806002600084815260200190815260200160002060009054906101000a900473ffffffffffffffffffffffffffffffffffffffff169050600073ffffffffffffffffffffffffffffffffffffffff168173ffffffffffffffffffffffffffffffffffffffff161415610bcb576040517f08c379a0000000000000000000000000000000000000000000000000000000008152600401610bc290612c2f565b60405180910390fd5b80915050919050565b60008073ffffffffffffffffffffffffffffffffffffffff168273ffffffffffffffffffffffffffffffffffffffff161415610c45576040517f08c379a0000000000000000000000000000000000000000000000000000000008152600401610c3c90612c0f565b60405180910390fd5b600360008373ffffffffffffffffffffffffffffffffffffffff1673ffffffffffffffffffffffffffffffffffffffff168152602001908152602001600020549050919050565b606060018054610c9b90612fcd565b80601f0160208091040260200160405190810160405280929190818152602001828054610cc790612fcd565b8015610d145780601f10610ce957610100808354040283529160200191610d14565b820191906000526020600020905b815481529060010190602001808311610cf757829003601f168201915b5050505050905090565b610d30610d296110eb565b83836119c5565b5050565b610d45610d3f6110eb565b83611680565b610d84576040517f08c379a0000000000000000000000000000000000000000000000000000000008152600401610d7b90612d0f565b60405180910390fd5b610d9084848484611b32565b50505050565b6060610da18261107f565b610de0576040517f08c379a0000000000000000000000000000000000000000000000000000000008152600401610dd790612c8f565b60405180910390fd5b6000600660008481526020019081526020016000208054610e0090612fcd565b80601f0160208091040260200160405190810160405280929190818152602001828054610e2c90612fcd565b8015610e795780601f10610e4e57610100808354040283529160200191610e79565b820191906000526020600020905b815481529060010190602001808311610e5c57829003601f168201915b505050505090506000610e8a611b8e565b9050600081511415610ea0578192505050610ee3565b600082511115610ed5578082604051602001610ebd9291906128c7565b60405160208183030381529060405292505050610ee3565b610ede84611ba5565b925050505b919050565b6000600560008473ffffffffffffffffffffffffffffffffffffffff1673ffffffffffffffffffffffffffffffffffffffff16815260200190815260200160002060008373ffffffffffffffffffffffffffffffffffffffff1673ffffffffffffffffffffffffffffffffffffffff16815260200190815260200160002060009054906101000a900460ff16905092915050565b61101281604051602401610f909190612a9f565b6040516020818303038152906040527f41304fac000000000000000000000000000000000000000000000000000000007bffffffffffffffffffffffffffffffffffffffffffffffffffffffff19166020820180517bffffffffffffffffffffffffffffffffffffffffffffffffffffffff8381831617835250505050611c4c565b50565b60007f01ffc9a7000000000000000000000000000000000000000000000000000000007bffffffffffffffffffffffffffffffffffffffffffffffffffffffff1916827bffffffffffffffffffffffffffffffffffffffffffffffffffffffff1916149050919050565b60008073ffffffffffffffffffffffffffffffffffffffff166002600084815260200190815260200160002060009054906101000a900473ffffffffffffffffffffffffffffffffffffffff1673ffffffffffffffffffffffffffffffffffffffff1614159050919050565b600033905090565b816004600083815260200190815260200160002060006101000a81548173ffffffffffffffffffffffffffffffffffffffff021916908373ffffffffffffffffffffffffffffffffffffffff160217905550808273ffffffffffffffffffffffffffffffffffffffff1661116683610b22565b73ffffffffffffffffffffffffffffffffffffffff167f8c5be1e5ebec7d5bd14f71427d1e84f3dd0314c0f7b2291e5b200ac8c7c3b92560405160405180910390a45050565b600081600001549050919050565b60606000825114156111dd57604051806020016040528060008152509050611354565b600060405180606001604052806040815260200161382f604091399050600060036002855161120c9190612df8565b6112169190612e4e565b60046112229190612e7f565b905060006020826112339190612df8565b67ffffffffffffffff811115611272577f4e487b7100000000000000000000000000000000000000000000000000000000600052604160045260246000fd5b6040519080825280601f01601f1916602001820160405280156112a45781602001600182028036833780820191505090505b509050818152600183018586518101602084015b81831015611313576003830192508251603f8160121c168501518253600182019150603f81600c1c168501518253600182019150603f8160061c168501518253600182019150603f81168501518253600182019150506112b8565b60038951066001811461132d576002811461133d57611348565b613d3d60f01b6002830352611348565b603d60f81b60018303525b50505050508093505050505b919050565b611373828260405180602001604052806000815250611c75565b5050565b6113808261107f565b6113bf576040517f08c379a00000000000000000000000000000000000000000000000000000000081526004016113b690612c4f565b60405180910390fd5b806006600084815260200190815260200160002090805190602001906113e692919061206e565b505050565b6001816000016000828254019250508190555050565b61149b83838360405160240161141993929190612af1565b6040516020818303038152906040527fe3849f79000000000000000000000000000000000000000000000000000000007bffffffffffffffffffffffffffffffffffffffffffffffffffffffff19166020820180517bffffffffffffffffffffffffffffffffffffffffffffffffffffffff8381831617835250505050611c4c565b505050565b606060008214156114e8576040518060400160405280600181526020017f30000000000000000000000000000000000000000000000000000000000000008152509050611648565b600082905060005b6000821461151a5780806115039061304a565b915050600a826115139190612e4e565b91506114f0565b60008167ffffffffffffffff81111561155c577f4e487b7100000000000000000000000000000000000000000000000000000000600052604160045260246000fd5b6040519080825280601f01601f19166020018201604052801561158e5781602001600182028036833780820191505090505b5090505b60008514611641576001826115a79190612ed9565b9150600a856115b69190613093565b60306115c29190612df8565b60f81b8183815181106115fe577f4e487b7100000000000000000000000000000000000000000000000000000000600052603260045260246000fd5b60200101907effffffffffffffffffffffffffffffffffffffffffffffffffffffffffffff1916908160001a905350600a8561163a9190612e4e565b9450611592565b8093505050505b919050565b60008160405160200161166091906128b0565b6040516020818303038152906040528051906020012060001c9050919050565b600061168b8261107f565b6116ca576040517f08c379a00000000000000000000000000000000000000000000000000000000081526004016116c190612bcf565b60405180910390fd5b60006116d583610b22565b90508073ffffffffffffffffffffffffffffffffffffffff168473ffffffffffffffffffffffffffffffffffffffff16148061171757506117168185610ee8565b5b8061175557508373ffffffffffffffffffffffffffffffffffffffff1661173d846104cb565b73ffffffffffffffffffffffffffffffffffffffff16145b91505092915050565b8273ffffffffffffffffffffffffffffffffffffffff1661177e82610b22565b73ffffffffffffffffffffffffffffffffffffffff16146117d4576040517f08c379a00000000000000000000000000000000000000000000000000000000081526004016117cb90612b4f565b60405180910390fd5b600073ffffffffffffffffffffffffffffffffffffffff168273ffffffffffffffffffffffffffffffffffffffff161415611844576040517f08c379a000000000000000000000000000000000000000000000000000000000815260040161183b90612b8f565b60405180910390fd5b61184f838383611cd0565b61185a6000826110f3565b6001600360008573ffffffffffffffffffffffffffffffffffffffff1673ffffffffffffffffffffffffffffffffffffffff16815260200190815260200160002060008282546118aa9190612ed9565b925050819055506001600360008473ffffffffffffffffffffffffffffffffffffffff1673ffffffffffffffffffffffffffffffffffffffff16815260200190815260200160002060008282546119019190612df8565b92505081905550816002600083815260200190815260200160002060006101000a81548173ffffffffffffffffffffffffffffffffffffffff021916908373ffffffffffffffffffffffffffffffffffffffff160217905550808273ffffffffffffffffffffffffffffffffffffffff168473ffffffffffffffffffffffffffffffffffffffff167fddf252ad1be2c89b69c2b068fc378daa952ba7f163c4a11628f55a4df523b3ef60405160405180910390a46119c0838383611cd5565b505050565b8173ffffffffffffffffffffffffffffffffffffffff168373ffffffffffffffffffffffffffffffffffffffff161415611a34576040517f08c379a0000000000000000000000000000000000000000000000000000000008152600401611a2b90612baf565b60405180910390fd5b80600560008573ffffffffffffffffffffffffffffffffffffffff1673ffffffffffffffffffffffffffffffffffffffff16815260200190815260200160002060008473ffffffffffffffffffffffffffffffffffffffff1673ffffffffffffffffffffffffffffffffffffffff16815260200190815260200160002060006101000a81548160ff0219169083151502179055508173ffffffffffffffffffffffffffffffffffffffff168373ffffffffffffffffffffffffffffffffffffffff167f17307eab39ab6107e8899845ad3d59bd9653f200f220920489ca2b5937696c3183604051611b259190612a84565b60405180910390a3505050565b611b3d84848461175e565b611b4984848484611cda565b611b88576040517f08c379a0000000000000000000000000000000000000000000000000000000008152600401611b7f90612b2f565b60405180910390fd5b50505050565b606060405180602001604052806000815250905090565b6060611bb08261107f565b611bef576040517f08c379a0000000000000000000000000000000000000000000000000000000008152600401611be690612ccf565b60405180910390fd5b6000611bf9611b8e565b90506000815111611c195760405180602001604052806000815250611c44565b80611c23846114a0565b604051602001611c349291906128c7565b6040516020818303038152906040525b915050919050565b60008151905060006a636f6e736f6c652e6c6f679050602083016000808483855afa5050505050565b611c7f8383611e71565b611c8c6000848484611cda565b611ccb576040517f08c379a0000000000000000000000000000000000000000000000000000000008152600401611cc290612b2f565b60405180910390fd5b505050565b505050565b505050565b6000611cfb8473ffffffffffffffffffffffffffffffffffffffff1661204b565b15611e64578373ffffffffffffffffffffffffffffffffffffffff1663150b7a02611d246110eb565b8786866040518563ffffffff1660e01b8152600401611d469493929190612a38565b602060405180830381600087803b158015611d6057600080fd5b505af1925050508015611d9157506040513d601f19601f82011682018060405250810190611d8e91906123b2565b60015b611e14573d8060008114611dc1576040519150601f19603f3d011682016040523d82523d6000602084013e611dc6565b606091505b50600081511415611e0c576040517f08c379a0000000000000000000000000000000000000000000000000000000008152600401611e0390612b2f565b60405180910390fd5b805181602001fd5b63150b7a0260e01b7bffffffffffffffffffffffffffffffffffffffffffffffffffffffff1916817bffffffffffffffffffffffffffffffffffffffffffffffffffffffff191614915050611e69565b600190505b949350505050565b600073ffffffffffffffffffffffffffffffffffffffff168273ffffffffffffffffffffffffffffffffffffffff161415611ee1576040517f08c379a0000000000000000000000000000000000000000000000000000000008152600401611ed890612c6f565b60405180910390fd5b611eea8161107f565b15611f2a576040517f08c379a0000000000000000000000000000000000000000000000000000000008152600401611f2190612b6f565b60405180910390fd5b611f3660008383611cd0565b6001600360008473ffffffffffffffffffffffffffffffffffffffff1673ffffffffffffffffffffffffffffffffffffffff1681526020019081526020016000206000828254611f869190612df8565b92505081905550816002600083815260200190815260200160002060006101000a81548173ffffffffffffffffffffffffffffffffffffffff021916908373ffffffffffffffffffffffffffffffffffffffff160217905550808273ffffffffffffffffffffffffffffffffffffffff16600073ffffffffffffffffffffffffffffffffffffffff167fddf252ad1be2c89b69c2b068fc378daa952ba7f163c4a11628f55a4df523b3ef60405160405180910390a461204760008383611cd5565b5050565b6000808273ffffffffffffffffffffffffffffffffffffffff163b119050919050565b82805461207a90612fcd565b90600052602060002090601f01602090048101928261209c57600085556120e3565b82601f106120b557805160ff19168380011785556120e3565b828001600101855582156120e3579182015b828111156120e25782518255916020019190600101906120c7565b5b5090506120f091906120f4565b5090565b5b8082111561210d5760008160009055506001016120f5565b5090565b600061212461211f84612d6f565b612d4a565b90508281526020810184848401111561213c57600080fd5b612147848285612f8b565b509392505050565b60008135905061215e816137ad565b92915050565b600081359050612173816137c4565b92915050565b600081359050612188816137db565b92915050565b60008151905061219d816137db565b92915050565b600082601f8301126121b457600080fd5b81356121c4848260208601612111565b91505092915050565b6000813590506121dc816137f2565b92915050565b6000602082840312156121f457600080fd5b60006122028482850161214f565b91505092915050565b6000806040838503121561221e57600080fd5b600061222c8582860161214f565b925050602061223d8582860161214f565b9150509250929050565b60008060006060848603121561225c57600080fd5b600061226a8682870161214f565b935050602061227b8682870161214f565b925050604061228c868287016121cd565b9150509250925092565b600080600080608085870312156122ac57600080fd5b60006122ba8782880161214f565b94505060206122cb8782880161214f565b93505060406122dc878288016121cd565b925050606085013567ffffffffffffffff8111156122f957600080fd5b612305878288016121a3565b91505092959194509250565b6000806040838503121561232457600080fd5b60006123328582860161214f565b925050602061234385828601612164565b9150509250929050565b6000806040838503121561236057600080fd5b600061236e8582860161214f565b925050602061237f858286016121cd565b9150509250929050565b60006020828403121561239b57600080fd5b60006123a984828501612179565b91505092915050565b6000602082840312156123c457600080fd5b60006123d28482850161218e565b91505092915050565b6000602082840312156123ed57600080fd5b60006123fb848285016121cd565b91505092915050565b61240d81612f17565b82525050565b61241c81612f29565b82525050565b600061242d82612db5565b6124378185612dcb565b9350612447818560208601612f9a565b61245081613180565b840191505092915050565b600061246682612dc0565b6124708185612ddc565b9350612480818560208601612f9a565b61248981613180565b840191505092915050565b600061249f82612dc0565b6124a98185612ded565b93506124b9818560208601612f9a565b80840191505092915050565b600081546124d281612fcd565b6124dc8186612ded565b945060018216600081146124f757600181146125085761253b565b60ff1983168652818601935061253b565b61251185612da0565b60005b8381101561253357815481890152600182019150602081019050612514565b838801955050505b50505092915050565b6000612551604983612ded565b915061255c8261319e565b604982019050919050565b6000612574602583612ded565b915061257f82613213565b602582019050919050565b6000612597603283612ddc565b91506125a282613262565b604082019050919050565b60006125ba602583612ddc565b91506125c5826132b1565b604082019050919050565b60006125dd601c83612ddc565b91506125e882613300565b602082019050919050565b6000612600602483612ddc565b915061260b82613329565b604082019050919050565b6000612623601983612ddc565b915061262e82613378565b602082019050919050565b6000612646600b83612ded565b9150612651826133a1565b600b82019050919050565b6000612669602c83612ddc565b9150612674826133ca565b604082019050919050565b600061268c603883612ddc565b915061269782613419565b604082019050919050565b60006126af602a83612ddc565b91506126ba82613468565b604082019050919050565b60006126d2602983612ddc565b91506126dd826134b7565b604082019050919050565b60006126f5602e83612ddc565b915061270082613506565b604082019050919050565b6000612718600283612ded565b915061272382613555565b600282019050919050565b600061273b602083612ddc565b91506127468261357e565b602082019050919050565b600061275e603183612ddc565b9150612769826135a7565b604082019050919050565b6000612781602c83612ddc565b915061278c826135f6565b604082019050919050565b60006127a4602f83612ddc565b91506127af82613645565b604082019050919050565b60006127c7600a83612ded565b91506127d282613694565b600a82019050919050565b60006127ea602183612ddc565b91506127f5826136bd565b604082019050919050565b600061280d600a83612ded565b91506128188261370c565b600a82019050919050565b6000612830601d83612ded565b915061283b82613735565b601d82019050919050565b6000612853603183612ddc565b915061285e8261375e565b604082019050919050565b60208201600080830154905061287e81612fff565b61288b6000860182612892565b5050505050565b61289b81612f81565b82525050565b6128aa81612f81565b82525050565b60006128bc8284612494565b915081905092915050565b60006128d38285612494565b91506128df8284612494565b91508190509392505050565b60006128f7828a6124c5565b91506129038289612494565b915061290f82886124c5565b915061291b8287612494565b915061292782866124c5565b91506129338285612494565b915061293f82846124c5565b915081905098975050505050505050565b600061295b82612567565b91506129678284612494565b915081905092915050565b600061297d82612639565b91506129898284612494565b915081905092915050565b600061299f826127ba565b91506129ab8285612494565b91506129b682612544565b91506129c28284612494565b91506129cd8261270b565b91508190509392505050565b60006129e482612800565b91506129f08284612494565b915081905092915050565b6000612a0682612823565b9150612a128284612494565b915081905092915050565b6000602082019050612a326000830184612404565b92915050565b6000608082019050612a4d6000830187612404565b612a5a6020830186612404565b612a6760408301856128a1565b8181036060830152612a798184612422565b905095945050505050565b6000602082019050612a996000830184612413565b92915050565b60006020820190508181036000830152612ab9818461245b565b905092915050565b60006040820190508181036000830152612adb818561245b565b9050612aea6020830184612869565b9392505050565b60006060820190508181036000830152612b0b818661245b565b9050612b1a60208301856128a1565b612b276040830184612404565b949350505050565b60006020820190508181036000830152612b488161258a565b9050919050565b60006020820190508181036000830152612b68816125ad565b9050919050565b60006020820190508181036000830152612b88816125d0565b9050919050565b60006020820190508181036000830152612ba8816125f3565b9050919050565b60006020820190508181036000830152612bc881612616565b9050919050565b60006020820190508181036000830152612be88161265c565b9050919050565b60006020820190508181036000830152612c088161267f565b9050919050565b60006020820190508181036000830152612c28816126a2565b9050919050565b60006020820190508181036000830152612c48816126c5565b9050919050565b60006020820190508181036000830152612c68816126e8565b9050919050565b60006020820190508181036000830152612c888161272e565b9050919050565b60006020820190508181036000830152612ca881612751565b9050919050565b60006020820190508181036000830152612cc881612774565b9050919050565b60006020820190508181036000830152612ce881612797565b9050919050565b60006020820190508181036000830152612d08816127dd565b9050919050565b60006020820190508181036000830152612d2881612846565b9050919050565b6000602082019050612d4460008301846128a1565b92915050565b6000612d54612d65565b9050612d608282613019565b919050565b6000604051905090565b600067ffffffffffffffff821115612d8a57612d89613151565b5b612d9382613180565b9050602081019050919050565b60008190508160005260206000209050919050565b600081519050919050565b600081519050919050565b600082825260208201905092915050565b600082825260208201905092915050565b600081905092915050565b6000612e0382612f81565b9150612e0e83612f81565b9250827fffffffffffffffffffffffffffffffffffffffffffffffffffffffffffffffff03821115612e4357612e426130c4565b5b828201905092915050565b6000612e5982612f81565b9150612e6483612f81565b925082612e7457612e736130f3565b5b828204905092915050565b6000612e8a82612f81565b9150612e9583612f81565b9250817fffffffffffffffffffffffffffffffffffffffffffffffffffffffffffffffff0483118215151615612ece57612ecd6130c4565b5b828202905092915050565b6000612ee482612f81565b9150612eef83612f81565b925082821015612f0257612f016130c4565b5b828203905092915050565b6000819050919050565b6000612f2282612f61565b9050919050565b60008115159050919050565b60007fffffffff0000000000000000000000000000000000000000000000000000000082169050919050565b600073ffffffffffffffffffffffffffffffffffffffff82169050919050565b6000819050919050565b82818337600083830152505050565b60005b83811015612fb8578082015181840152602081019050612f9d565b83811115612fc7576000848401525b50505050565b60006002820490506001821680612fe557607f821691505b60208210811415612ff957612ff8613122565b5b50919050565b600061301261300d83613191565b612f0d565b9050919050565b61302282613180565b810181811067ffffffffffffffff8211171561304157613040613151565b5b80604052505050565b600061305582612f81565b91507fffffffffffffffffffffffffffffffffffffffffffffffffffffffffffffffff821415613088576130876130c4565b5b600182019050919050565b600061309e82612f81565b91506130a983612f81565b9250826130b9576130b86130f3565b5b828206905092915050565b7f4e487b7100000000000000000000000000000000000000000000000000000000600052601160045260246000fd5b7f4e487b7100000000000000000000000000000000000000000000000000000000600052601260045260246000fd5b7f4e487b7100000000000000000000000000000000000000000000000000000000600052602260045260246000fd5b7f4e487b7100000000000000000000000000000000000000000000000000000000600052604160045260246000fd5b6000601f19601f8301169050919050565b60008160001c9050919050565b7f222c20226465736372697074696f6e223a20225a6f6d62696520746f7567687460008201527f732e222c2022696d616765223a2022646174613a696d6167652f7376672b786d60208201527f6c3b6261736536342c0000000000000000000000000000000000000000000000604082015250565b7f68747470733a2f2f6e6674707265766965772e30786465762e636f6465732f3f60008201527f636f64653d000000000000000000000000000000000000000000000000000000602082015250565b7f4552433732313a207472616e7366657220746f206e6f6e20455243373231526560008201527f63656976657220696d706c656d656e7465720000000000000000000000000000602082015250565b7f4552433732313a207472616e736665722066726f6d20696e636f72726563742060008201527f6f776e6572000000000000000000000000000000000000000000000000000000602082015250565b7f4552433732313a20746f6b656e20616c7265616479206d696e74656400000000600082015250565b7f4552433732313a207472616e7366657220746f20746865207a65726f2061646460008201527f7265737300000000000000000000000000000000000000000000000000000000602082015250565b7f4552433732313a20617070726f766520746f2063616c6c657200000000000000600082015250565b7f5345434f4e445f574f5244000000000000000000000000000000000000000000600082015250565b7f4552433732313a206f70657261746f7220717565727920666f72206e6f6e657860008201527f697374656e7420746f6b656e0000000000000000000000000000000000000000602082015250565b7f4552433732313a20617070726f76652063616c6c6572206973206e6f74206f7760008201527f6e6572206e6f7220617070726f76656420666f7220616c6c0000000000000000602082015250565b7f4552433732313a2062616c616e636520717565727920666f7220746865207a6560008201527f726f206164647265737300000000000000000000000000000000000000000000602082015250565b7f4552433732313a206f776e657220717565727920666f72206e6f6e657869737460008201527f656e7420746f6b656e0000000000000000000000000000000000000000000000602082015250565b7f45524337323155524953746f726167653a2055524920736574206f66206e6f6e60008201527f6578697374656e7420746f6b656e000000000000000000000000000000000000602082015250565b7f227d000000000000000000000000000000000000000000000000000000000000600082015250565b7f4552433732313a206d696e7420746f20746865207a65726f2061646472657373600082015250565b7f45524337323155524953746f726167653a2055524920717565727920666f722060008201527f6e6f6e6578697374656e7420746f6b656e000000000000000000000000000000602082015250565b7f4552433732313a20617070726f76656420717565727920666f72206e6f6e657860008201527f697374656e7420746f6b656e0000000000000000000000000000000000000000602082015250565b7f4552433732314d657461646174613a2055524920717565727920666f72206e6f60008201527f6e6578697374656e7420746f6b656e0000000000000000000000000000000000602082015250565b7f7b226e616d65223a202200000000000000000000000000000000000000000000600082015250565b7f4552433732313a20617070726f76616c20746f2063757272656e74206f776e6560008201527f7200000000000000000000000000000000000000000000000000000000000000602082015250565b7f46495253545f574f524400000000000000000000000000000000000000000000600082015250565b7f646174613a6170706c69636174696f6e2f6a736f6e3b6261736536342c000000600082015250565b7f4552433732313a207472616e736665722063616c6c6572206973206e6f74206f60008201527f776e6572206e6f7220617070726f766564000000000000000000000000000000602082015250565b6137b681612f17565b81146137c157600080fd5b50565b6137cd81612f29565b81146137d857600080fd5b50565b6137e481612f35565b81146137ef57600080fd5b50565b6137fb81612f81565b811461380657600080fd5b5056fe416e204e465420772f20494420257320686173206265656e206d696e74656420746f2025734142434445464748494a4b4c4d4e4f505152535455565758595a6162636465666768696a6b6c6d6e6f707172737475767778797a303132333435363738392b2fa26469706673582212207ef7d21794dc93cd06a931f1221825e5668606b451ef389fd665d4a722501f7664736f6c634300080100332720643d274d3232332e303239203437332e303631632d2e3337372d2e3236342d2e3736362d2e3531352d312e3134322d2e3739312d34332e3537382d32392e3833342d37322e3838362d37392e3032332d37352e3535392d3133352e313738613136392e3732203136392e37322030203020312d2e3230312d382e333937563138332e33303163302d34382e3030392031392e3436372d39312e3438372035302e3933332d3132322e3935332032342e332d32342e3239392035352e3735372d34312e3433322039302e39342d34372e393831613137342e383836203137342e3838362030203020302d33312e3939352d322e393532632d34382e30323120302d39312e3438372031392e3436372d3132322e3935332035302e393333732d35302e3933332037342e3934342d35302e393333203132322e393533763134352e333935633020322e3831312e30363320352e36312e32303120382e33393720322e3637332035362e3135352033312e393831203130352e3334332037352e353539203133352e3137382e3337372e3237362e3736362e35323720312e3134322e3739312032372e3730312031382e3633392036312e3036322032392e3532312039362e3938342032392e353231613137342e3934203137342e39342030203020302033322e3030352d322e393531203137322e3935203137322e39352030203020312d36342e3938312d32362e3537317a272f3e20203c70617468207374796c653d2766696c6c3a236637623233392720643d274d3133382e383338203237322e3631366835352e31333863302032302e3330382d31362e3436372033362e3737352d33362e3737352033362e3737352d31322e313520302d32322e3931392d352e3838372d32392e3632312d31342e3936312d362e3635322d392e3033372e3033382d32312e3831342031312e3235382d32312e3831347a272f3e20203c70617468207374796c653d2766696c6c3a233333332720643d274d3437382e3532203238342e343963302d32352e3833382d31352e3831332d34392e3231312d33392e3231342d35392e313336762d34322e30353263302d31342e3130342d312e3631342d32382e3136392d342e3739362d34312e38303661392e34313620392e3431362030203020302d31312e3932362d362e3836632d312e3634322e3530332d332e332e3934352d342e39363520312e3335382d2e3331332d31342e30342d332e3430332d33372e3031342d31382e3437372d35342e3035342d31312e3538342d31332e3039342d32372e3832362d32302e3137322d34382e3331362d32312e3038392d382e3732312d31302e3737352d31392e3632352d31392e3737372d33322e3131342d32362e323339613130312e363238203130312e3632382030203020302d31372e3134312d362e3936352039342e3635342039342e36353420302030203120322e3633312d31312e30363720392e34313320392e3431332030203020302d362e3839352d31312e393038413138342e343732203138342e343732203020302030203235362e3030342030433135342e39333220302037322e3730332038322e3232392037322e373033203138332e3330317634322e303439632d32332e34303620392e3932332d33392e3232322033332e3239392d33392e3232322035392e31333920302032362e3130322031362e312034392e3634312033392e3836392035392e34303820342e35342035342e3635322033332e333731203130342e3730342037392e313031203133362e3036342e3332312e3233322e36352e3435362e3937342e3637356c2e3333382e323238433138342e303237203530312e323334203231392e33383120353132203235362e303034203531327337312e3937372d31302e373637203130322e3239362d33312e3137346c2e3237312d2e313833632e3332392d2e3232312e36362d2e3434372e3938352d2e3638322034352e3732392d33312e3336312037342e3536322d38312e3431342037392e3130312d3133362e3036382032332e3736372d392e3736382033392e3836332d33332e3330342033392e3836332d35392e3430337a4d3335312e343035203130312e38363963312e31383120342e31333420342e39343920362e383320392e30343720362e38332e383536203020312e3732362d2e31313820322e3539312d2e33363520342e3939392d312e34323820372e3839342d362e36333820362e3436352d31312e363336613130302e353031203130302e3530312030203020302d352e3631332d31342e39363963382e36333320322e3333332031352e36393320362e3534372032312e3038372031322e3631382031322e3035312031332e3536322031332e3833332033332e3536352031332e38322034342e3334382d312e3333342e3035362d322e36372e3039322d342e3030392e3039322d35312e32323820302d39332e3035342d34302e3930372d39342e3539382d39312e3736386138332e3139372038332e31393720302030203120392e38363420342e3331366332302e3336332031302e3533322033352e3034352032382e3437392034312e3334362035302e3533347a4d35322e333038203238342e343963302d31352e34313920372e3936352d32392e3539352032302e3339352d33372e3835377637352e373135632d31322e3433322d382e3236312d32302e3339352d32322e3432352d32302e3339352d33372e3835387a6d3336382e3137312034342e32303963302035342e3330382d32362e373932203130352e3037362d37312e363639203133352e3830332d2e3038382e30362d2e3137342e3132322d2e32362e3138352d2e3136322e3132312d2e3333342e3233322d2e352e3334346c2d2e3331382e323135632d32372e3134362031382e3237312d35382e3836342032372e3932382d39312e3732392032372e3932382d33322e38363320302d36342e3538332d392e3635372d39312e3636362d32372e3838356c2d2e3338352d2e323631632d2e3136342d2e3131322d2e3333342d2e3232322d2e3439352d2e33346131302e3037362031302e3037362030203020302d2e32362d2e313835632d34342e3837362d33302e3732372d37312e3636392d38312e3439352d37312e3636392d3133352e383033563138332e3330314339312e35332039322e3631203136352e3331332031382e383237203235362e3030352031382e38323763392e323820302031382e35342e3737362032372e36333220322e333132613131332e3734203131332e37342030203020302d322e3334312032322e39373563302036322e3538332035302e393136203131332e343939203131332e343939203131332e34393920372e38353620302031352e3635342d2e3830362032332e3239322d322e343032613136352e383635203136352e38363520302030203120322e3339342032382e3039763134352e333938682d2e3030327a6d31382e3832372d362e333537762d37352e3730356331322e34323520382e3236342032302e3338372032322e3433352032302e3338372033372e38353220302031352e3433312d372e3935392032392e3539322d32302e3338372033372e3835337a272f3e20203c70617468207374796c653d2766696c6c3a233333332720643d274d3337332e313638203236332e313938682d38392e3038632d352e31393920302d392e34313320342e3231352d392e34313320392e34313373342e32313520392e34313420392e34313320392e3431346832342e37383563312e3435372031392e303220392e3638312036302e3234312035322e3536312037392e34363561392e33363920392e33363920302030203020332e3834342e38323620392e34313520392e34313520302030203020332e3835362d31382e303036632d31352e3533312d362e3936322d32352e3238312d31372e3732372d33312e34322d32382e3739396134352e3932342034352e3932342030203020302031372e30393720332e3239336331342e36303620302032382e3530382d372e3032342033372e3138382d31382e37383820352e3135392d362e39393120352e3931352d31362e31383120312e3937372d32332e3938332d332e3939362d372e3931372d31312e3936392d31322e3833352d32302e3830382d31322e3833357a6d332e3638342032352e363339632d352e32323420372e3037392d31332e3235372031312e3133392d32322e3033392031312e3133392d31312e37383320302d32312e3835322d372e3438372d32352e3639382d31372e3935326834342e30353463322e343738203020332e36323520312e37343320342e30303320322e3439332e3433342e3836332e39373120322e3536392d2e333220342e33327a6d2d3132302e3834382037322e303939632d32302e37343220302d34302e33303720392e31312d35332e3637342032342e3939332d382e32393920392e3835392d31302e3034392032332e3239392d342e3536392033352e30373520352e35392031322e3031332031372e3235342031392e3437362033302e3433392031392e3437366834362e3139337631392e313036633020352e31393920342e32313520392e34313320392e34313420392e34313361392e34313320392e34313320302030203020392e3431332d392e343133762d32302e343363392e3135372d322e3634312031362e3831352d392e3130332032312e3032362d31382e31353220352e3438312d31312e37373620332e37332d32352e3231372d342e3536372d33352e3037362d31332e3336382d31352e3838322d33322e3933322d32342e3939322d35332e3637352d32342e3939327a6d302031382e3832376331352e31373520302032392e34383820362e3636362033392e3237322031382e323920312e36343820312e39353820322e36383120342e32303520332e30393120362e3535384136392e3938352036392e39383520302030203020323536203339302e3337316136392e3938352036392e3938352030203020302d34322e3335382031342e323333632e3431322d322e33353120312e3434332d342e35393520332e3039312d362e35353220392e3738332d31312e3632332032342e3039362d31382e3238392033392e3237312d31382e3238397a6d2d33322e3537382034312e3131396135312e3138342035312e3138342030203020312033322e3537362d31312e3638342035312e3139322035312e3139322030203020312033322e3537382031312e363835632d312e3439362e352d332e3039362e3736392d342e3737312e373639682d35352e3630366131342e3939362031342e3939362030203020312d342e3737372d2e37377a6d2d38352e392d3236312e30303961392e333820392e333820302030203020362e3635362d322e3735386c31312e3133312d31312e31333120352e33303420352e33303463312e38333820312e38333820342e32343720322e37353820362e36353620322e37353873342e3831382d2e39313920362e3635362d322e37353863332e3637362d332e36373620332e3637362d392e36333720302d31332e3331326c2d352e3330332d352e3330332031322e3434372d31322e34343720352e33303320352e33303361392e333820392e333820302030203020362e36353620322e37353820392e333820392e333820302030203020362e3635362d322e37353820392e34313320392e34313320302030203020302d31332e3331326c2d352e3330332d352e3330332031312e3133312d31312e31333163332e3637362d332e36373620332e3637362d392e36333720302d31332e3331322d332e3637352d332e3637362d392e3633362d332e3637362d31332e33313220306c2d31312e3133312031312e3133312d352e3330332d352e333034632d332e3637352d332e3637362d392e3633362d332e3637362d31332e3331322030732d332e36373620392e36333620302031332e3331326c352e33303320352e3330342d31322e3434372031322e3434372d352e3330342d352e333034632d332e3637362d332e3637362d392e3633372d332e3637362d31332e33313220302d332e36373620332e3637362d332e36373620392e36333720302031332e3331326c352e33303420352e3330342d31312e3133312031312e313331632d332e36373620332e3637362d332e36373620392e36333720302031332e33313261392e33373820392e33373820302030203020362e36353520322e3735377a6d2d382e3039392038302e30343961392e34313320392e34313320302030203020392e34313320392e3431336838392e30383161392e34313320392e34313320302030203020302d31382e383236483133382e3834632d352e31393820302d392e34313320342e3231352d392e34313320392e3431337a6d3135342e363620392e3431346838392e30383161392e34313320392e34313320302030203020302d31382e383236682d38392e30383161392e34313320392e34313320302030203020302031382e3832367a6d2d36342e3433362033322e36383920362e33312034382e35373561392e34313420392e34313420302030203020392e33333620382e3230316834312e34313863352e313939203020392e3431332d342e32313520392e3431332d392e343133732d342e3231352d392e3431342d392e3431332d392e343134682d33332e3134386c2d362e33312d34382e35373561392e34313420392e3431342030203020302d392e3333342d382e323031682d38392e3038632d382e38333920302d31362e38313420342e3931382d32302e38312031322e3833352d332e393420372e3830322d332e3138322031362e39393220312e3937372032332e39383220382e3638312031312e3736362032322e3538342031382e3738392033372e3138382031382e3738396134352e3933342034352e3933342030203020302031362e3934342d332e323333632d362e3134332031312e3037392d31352e3836372032312e3833362d33312e3236382032382e3733392d342e37343420322e3132362d362e38363620372e3639362d342e3733392031322e34343161392e34313420392e34313420302030203020382e35393520352e35363520392e33363920392e33363920302030203020332e3834342d2e3832366334322e38382d31392e3232322035312e3130342d36302e3434332035322e3536312d37392e3436356831362e3531367a6d2d38342e34393420362e383132632d312e3239322d312e3735312d2e3735362d332e3435382d2e33322d342e3331392e3337382d2e37343920312e3532362d322e34393320342e3030342d322e3439336834342e303534632d332e3834372031302e3436352d31332e3931342031372e3935312d32352e3639382031372e3935312d382e3738332e3030312d31362e3831362d342e3035382d32322e30342d31312e3133397a272f3e20203c672f3e20203c672f3e20203c672f3e20203c672f3e20203c672f3e20203c672f3e20203c672f3e20203c672f3e20203c672f3e20203c672f3e20203c672f3e20203c672f3e20203c672f3e20203c672f3e20203c672f3e3c2f7376673e2720643d274d3238332e383036203433312e30363463382e30333320302031342e3639382d332e3735332031382e3937382d392e323520362e3436342d382e32383420372e3530362d32302e3533342d2e3330312d32392e3832322d31312e3134362d31332e3232392d32372e3832362d32312e3633382d34362e3437382d32312e363338732d33352e33333220382e3430392d34362e3437382032312e363338632d372e38303720392e3237352d362e3736352032312e3532362d2e3331342032392e38303920342e323820352e3439372031302e39343520392e3236332031382e393920392e3236336835352e3630337a6d33342e3232382d3135382e34343863302032302e3330382031362e3436372033362e3737352033362e3737352033362e3737352031322e313520302032322e3931392d352e3838372032392e3632312d31342e39363120362e3635322d392e3033372d2e3033382d32312e3831342d31312e3235392d32312e383134682d35352e3133377a6d2d3132342e3035382030682d35352e313338632d31312e32323120302d31372e3931312031322e3737372d31312e3235392032312e38313420362e37303220392e3037352031372e3437312031342e3936312032392e3632312031342e3936312032302e33303920302033362e3737362d31362e3436372033362e3737362d33362e3737357a6d3233352e3931352031312e3837347634342e323036633020322e3831312d2e30363320352e36312d2e32303120382e3339372d322e3637332035362e3135352d33312e393831203130352e3334332d37352e353539203133352e3137382d2e3337372e3237362d2e3736362e3532372d312e3134322e3739312d32372e3730312031382e3633392d36312e3036322032392e3532312d39362e3938342032392e353231732d36392e3238332d31302e3838322d39362e3938342d32392e353231632d2e3337372d2e3236342d2e3736362d2e3531352d312e3134322d2e3739312d34332e3537382d32392e3833342d37322e3838362d37392e3032332d37352e3535392d3133352e313738613136392e3732203136392e37322030203020312d2e3230312d382e333937563138332e33303163302d34382e3030392031392e3436372d39312e3438372035302e3933332d3132322e393533533230372e39383420392e343135203235362e30303520392e3431356331332e343820302032362e35393620312e3533312033392e31383520342e343331613130342e353136203130342e3531362030203020302d342e3438312033302e32373463302035372e3438352034362e363033203130342e303736203130342e303838203130342e30373620342e343138203020382e3736312d2e3237362031332e3031362d2e383033613130342e313434203130342e3134342030203020302031372e3533342d332e373533203137342e393835203137342e39383520302030203120342e3534342033392e363632563238342e34397a272f3e20203c70617468207374796c653d2766696c6c3a202720643d274d3432392e383931203233312e39356332322e36363820362e3730322033392e32312032372e3730312033392e32312035322e353420302032342e3931342d31362e36332034352e3936332d33392e3431312035322e3630332e3133382d322e3738362e3230312d352e3538352e3230312d382e333937563233312e39357a4d38322e3332203333372e303932682d2e303133632d32322e3736382d362e36342d33392e3431312d32372e3638382d33392e3431312d35322e36303320302d32342e3833392031362e3534332d34352e3833372033392e3232332d35322e35347639362e373436633020322e3831322e30363320352e3631312e32303120382e3339377a272f3e20203c70617468207374796c653d2766696c6c3a236639353432382720643d274d3330322e3437203432312e343235632e3131332e3132362e3232362e3235312e3331342e3338392d342e323820352e3439372d31302e39343520392e32352d31382e39373820392e3235682d35352e363032632d382e30343520302d31342e37312d332e3736352d31382e39392d392e3236332e312d2e3133382e3231332d2e3235312e3331342d2e3337372031312e3133332d31332e3232392032372e3832362d32312e3633382034362e3437382d32312e3633387333352e33333120382e34312034362e3436342032312e3633397a272f3e20203c70617468207374796c653d2766696c6c3a236637623233392720643d274d3337332e313732203237322e3631366331312e32323120302031372e3931312031322e3737372031312e3235392032312e3831342d362e37303220392e3037352d31372e3437312031342e3936312d32392e3632312031342e3936312d32302e33303820302d33362e3737352d31362e3436372d33362e3737352d33362e3737356835352e3133377a272f3e20203c70617468207374796c653d2766696c6c3a3c73766720786d6c6e733d27687474703a2f2f7777772e77332e6f72672f323030302f737667272076696577426f783d27302030203531322e303031203531322e30303127207374796c653d27656e61626c652d6261636b67726f756e643a6e657720302030203531322e303031203531322e3030312720786d6c3a73706163653d277072657365727665273e20203c70617468207374796c653d2766696c6c3a236637623233392720643d274d3334362e3139392037302e3135316337312e31303320302036312e3631342037372e3232382036312e3631342037372e323238762e303133632d342e3235352e3532372d382e3539382e3830332d31332e3031362e3830332d35372e34383520302d3130342e3038382d34362e3539312d3130342e3038382d3130342e30373620302d332e3138382e3133382d362e3333382e3432372d392e343531682e30313363372e38393520312e3635372031352e37313420342e3431382032332e32333320382e3330392031332e30303220362e3731352032332e3730392031362e3131362033312e3831372032372e3137347a272f3e20203c70617468207374796c653d2766696c6c3a236632663266322720643d274d3330322e343833203339312e39393263372e38303720392e32383820362e3736352032312e3533382e3330312032392e38323261332e30323120332e3032312030203020302d2e3331342d2e333839632d31312e3133332d31332e3232392d32372e3831342d32312e3633382d34362e3436352d32312e3633382d31382e36353120302d33352e33343520382e3430392d34362e3437382032312e3633382d2e312e3132362d2e3231332e3233382d2e3331342e3337372d362e3435312d382e3238342d372e3439332d32302e3533342e3331342d32392e3830392031312e3134362d31332e3232392032372e3832362d32312e3633382034362e3437382d32312e3633382031382e3635312d2e3030322033352e33333220382e3430382034362e3437382032312e3633377a272f3e20203c70617468207374796c653d2766696c6c3a",
  "linkReferences": {},
  "deployedLinkReferences": {}
}